:020000040000FA
:1000000018F09FE518F09FE518F09FE518F09FE5C0
:1000100018F09FE5586FA0B818F09FE518F09FE51D
:1000200004010000400000004C00000044000000FB
:10003000480000000000000058000000F40000002C
:10004000FEFFFFEAFEFFFFEAFEFFFFEA400F50E37C
:10005000074E003A5B4D00EA04E04EE20F502DE9F6
:1000600000304FE108604DE9FC209FE50110A0E35E
:10007000001082E5F4209FE50010D2E5FF0051E377
:10008000011081320010C2350CD04DE29FF021E307
:10009000010051E3D8D09F05FF20E0E3003092E556
:1000A0000FE0A0E113FF2FE19FF021E3B8209FE5CF
:1000B0000110A0E3001082E5660100EBA8209FE597
:1000C0000010A0E3001082E592F021E30860DDE873
:1000D000A0009FE5000090E59C109FE5001091E5D1
:1000E000010050E10CD08DE203F06FE10F90FD08AC
:1000F00088F09FE50F402DE9FD0E00EB0F40BDE8B5
:1001000004F05EE2004D00EB090000EB710E00EB25
:10011000240000EA68009FE568209FE568309FE5BD
:100120000EF0A0E1FEFFFFEA0000A0E10000A0E366
:100130000EF0A0E10E00A0E1D3F021E350D09FE546
:10014000D2F021E34CD09FE5D1F021E348D09FE5E8
:10015000D7F021E344D09FE5DBF021E340D09FE5D9
:10016000D0F021E308D09FE500F0A0E1600000405E
:100170006C030040407D0040840500407C05004049
:100180008039010000800040407D0040407D0040FB
:1001900000000000F47B0040147D00403C7D0040E6
:1001A0003C7D00403C7D004090808FE20F0098E84D
:1001B000080080E0081081E0082082E0083083E039
:1001C00001B040E201C042E2010050E10E00000A2D
:1001D0007000B0E8050054E1FAFFFF0A010014E3E3
:1001E0000B408410010015E30B508510020015E34D
:1001F000095085100350C5E3046056E2047094244E
:1002000004708524FBFFFF8AEEFFFFEA030052E142
:100210005F4C000B0070A0E33000B2E8010014E373
:100220000C408410020014E3094084100340C4E32E
:10023000045055E204708424FCFFFF8AF2FFFFEAB9
:1002400074390100B0390100B0390100C83901002A
:10025000F8402DE90040A0E10000A0E10000A0E18D
:10026000D0089FE50000D0E5000050E30200001A2E
:10027000640FA0E37F0C00EBF8FFFFEAB8089FE5EE
:10028000001090E56400A0E3E24B00EB0050A0E119
:100290000000A0E10000A0E10000A0E10200A0E356
:1002A000000000EF0000A0E190089FE5000090E54D
:1002B0008C189FE5000081E580089FE5007090E5BF
:1002C0000000A0E374189FE5000081E50000A0E1B4
:1002D0000300A0E3000000EF0000A0E1000055E3F0
:1002E0000E00000A0710A0E10500A0E1C94B00EBD9
:1002F000640060E2006CA0E1466CA0E1000056E3FF
:10030000020000BA3C089FE50060C0E50B0000EA6F
:100310000000A0E32C189FE50000C1E5070000EAFB
:100320000000A0E31C189FE50000C1E508089FE558
:10033000001090E56400A0E3B64B00EB0050A0E194
:10034000C41000EBC800A0E34A0C00EBD0FFFFEAAA
:1003500004E02DE514D04DE20330A0E30020A0E33B
:100360008010A0E3E0079FE50F008DE9DC379FE5F3
:1003700000308DE51D30A0E3D4279FE50010A0E3F9
:10038000D0079FE5380A00EB14D08DE204E09DE42D
:100390001EFF2FE110402DE90040A0E10000A0E188
:1003A0000000A0E10000A0E10000A0E10200A0E345
:1003B000000000EF0000A0E180079FE5000090E54D
:1003C000010080E274179FE5000081E50000A0E1D4
:1003D0000300A0E3000000EF0000A0E1A11000EB8B
:1003E000EFFFFFEA04E02DE514D04DE20330A0E377
:1003F0000020A0E38010A0E35C079FE50F008DE9DB
:1004000058379FE500308DE51E30A0E350279FE56B
:100410000010A0E34C079FE5130A00EB14D08DE217
:1004200004E09DE41EFF2FE13C079FE53C279FE58C
:100430000010A0E3130051E30900002A020000EAC3
:10044000013081E2401BC3E3F9FFFFEA0030A0E383
:100450000030C0E5042080E50C0080E20C2082E240
:10046000F6FFFFEA0030A0E30030C0E50030A0E373
:10047000043080E5F0369FE5F4C69FE500308CE55A
:100480001EFF2FE10030A0E3E8C69FE500308CE5B9
:100490000000A0E31F0050E30700002A020000EA6A
:1004A000013080E2FF0003E2F9FFFFEA0030A0E341
:1004B000C4C69FE500318CE7F8FFFFEABC169FE554
:1004C000BC269FE50000A0E3100050E30700002ACF
:1004D000020000EA013080E2FF0003E2F9FFFFEAD8
:1004E000142081E5301081E2302082E2F8FFFFEA3B
:1004F0000030A0E3143081E580369FE584C69FE597
:1005000000308CE51EFF2FE10020A0E378369FE548
:100510000020C3E574169FE50000A0E3040050E34B
:100520000600002A020000EA012080E2400BC2E33C
:10053000F9FFFFEA0020A0E30120C1E4F9FFFFEA90
:100540000020A0E348369FE50020C3E50020A0E39B
:1005500040369FE50020C3E50020A0E338369FE544
:10056000002083E50020A0E330369FE5002083E5EE
:100570001EFF2FE10000A0E324169FE5000081E5A7
:100580000000A0E31C169FE50000C1E50000A0E309
:1005900014169FE50000C1E50000A0E30C169FE5DE
:1005A0000000C1E50000A0E304169FE50000C1E5DE
:1005B0000000A0E3FC159FE5000081E50000A0E33A
:1005C00078159FE5000081E50000A0E370159FE528
:1005D000000081E50000A0E35C159FE5000081E5D7
:1005E0000000A0E34C159FE50000C1E51EFF2FE1D0
:1005F00008402DE9101000EBDDFFFFEBC1FFFFEB22
:100600009FFFFFEB87FFFFEB560700EB74FFFFEB4D
:100610004EFFFFEB091000EB0840BDE81EFF2FE185
:100620008C059FE50000D0E5010050E30800001AAA
:1006300070059FE50000D0E5FF0050E30400002AAC
:1006400060059FE50000D0E5010080E254159FE5BC
:100650000000C1E51EFF2FE108402DE950059FE590
:100660000000D0E5010050E33A00001A0000A0E1CC
:100670000200A0E3000000EF0000A0E124059FE5D8
:100680000000D0E5000050E30400000A14059FE5D7
:100690000000D0E5010040E208159FE50000C1E53B
:1006A00000059FE50000D0E5FC149FE50010D1E5B2
:1006B000010090E12300001AFC049FE5C8149FE5A7
:1006C0000010D1E50100D0E7F0149FE50000C1E57E
:1006D000B8049FE5E4149FE50010D1E50100D0E7E0
:1006E000D4149FE50000D1E7D0149FE50010D1E5B8
:1006F000810180E09C149FE50000C1E594049FE522
:100700000000D0E588149FE50010D1E5010050E11C
:100710000C00000A60049FE578149FE50010D1E505
:10072000010190E770149FE5000081E584049FE5D6
:10073000000090E5010080E278149FE5000081E56B
:100740000840BDE81EFF2FE10000A0E10300A0E388
:10075000000000EF0000A0E1F8FFFFEA08402DE9EB
:100760004C049FE50000D0E5010050E31000001AA2
:100770000000A0E10200A0E3000000EF0000A0E103
:1007800024049FE50000D0E5FF0050E30400002AA8
:1007900014049FE50000D0E5010080E208149FE505
:1007A0000000C1E50000A0E10300A0E3000000EFAD
:1007B0000000A0E10840BDE81EFF2FE110402DE938
:1007C0000000A0E10200A0E3000000EF0000A0E1B3
:1007D000D0039FE50000D0E5CC139FE50010D1E5E4
:1007E000010090E11F00001ACC039FE598139FE5DC
:1007F0000010D1E50140D0E790039FE50400D0E769
:10080000B4139FE50000D1E7840180E084139FE5E5
:100810000000C1E57C039FE50000D0E570139FE573
:100820000010D1E5010050E10E00000A48039FE5E9
:1008300060139FE50010D1E5010190E758139FE593
:10084000000081E56C039FE5000090E5010080E277
:1008500060139FE5000081E50000A0E10000A0E337
:10086000000000EF0000A0E10000A0E10300A0E311
:10087000000000EF0000A0E11040BDE81EFF2FE1E6
:1008800008402DE928039FE50000D0E5010050E372
:100890002000001A0000A0E10200A0E3000000EF29
:1008A0000000A0E100039FE50000D0E5000050E358
:1008B0001400000AF0029FE50000D0E5010040E2CC
:1008C000E4129FE50000C1E5DC029FE50000D0E5F1
:1008D000D0129FE50010D1E5010090E10500001A5B
:1008E0000000A0E10300A0E3000000EF0000A0E191
:1008F000B1FFFFEB070000EA0000A0E10300A0E366
:10090000000000EF030000EA0000A0E10300A0E304
:10091000000000EF0000A0E10840BDE81EFF2FE14D
:1009200038402DE988029FE50000D0E5000050E343
:100930001C00001A80029FE54C129FE50010D1E5D3
:100940000140D0E744029FE50400D0E768129FE52C
:100950000050D1E7840185E038129FE50000C1E531
:1009600030029FE50000D0E524129FE50000C1E5BC
:1009700004029FE51C129FE50010D1E5010190E7FC
:1009800014129FE5000081E50C029FE5000090E550
:1009900008129FE5000081E50000A0E10100A0E34E
:1009A000000000EF0000A0E13840BDE81EFF2FE18D
:1009B00008402DE90200A0E3AE0A00EB0000A0E130
:1009C0000200A0E3000000EF0000A0E10000A0E3AF
:1009D00068119FE5000081E50000A0E10300A0E3AD
:1009E000000000EF0000A0E1C800A0E3A10A00EBB6
:1009F0000000A0E10200A0E3000000EF0000A0E181
:100A000038019FE5000090E52C119FE5000081E58D
:100A10000100A0E31C119FE50000C1E50000A0E17A
:100A20000300A0E3000000EF0000A0E10840BDE8E3
:100A30001EFF2FE110402DE9090F00EB0000A0E19F
:100A40000200A0E3000000EF0000A0E150019FE5DC
:100A5000000090E5010080E244119FE5000081E57F
:100A60000000A0E10300A0E3000000EF0000A0E10F
:100A70003C019FE50000D0E5010050E32B00001A87
:100A8000F0009FE5004090E50000A0E12700D4E5DC
:100A90001E0050E32500000A0000A0E10200A0E3D0
:100AA000000000EF0000A0E1B402D4E1000050E338
:100AB0001800000AB402D4E1010040E20008A0E1FD
:100AC0002008B0E1B402C4E11200001A2600D4E507
:100AD000080010E30D00001A2B00D4E5A8109FE5D4
:100AE0000010D1E5010080E19C109FE50000C1E508
:100AF0002910D4E594209FE5020081E00010D0E5A4
:100B00002A20D4E5021081E10010C0E5010000EACE
:100B10000100A0E3B402C4E1144094E50000A0E1A8
:100B20000300A0E3000000EF0000A0E1D6FFFFEA11
:100B30001040BDE81EFF2FE1680100406001004049
:100B400078030040640100405C0100406C010040FB
:100B5000FEFF000068030040500200007C030040DC
:100B6000FFFF000078050040940300006C00004087
:100B70007800004068000040880500408C05004077
:100B80000806004038060040800500407103004020
:100B9000720300406F030040700300408405004072
:100BA0007C050040A40A00406C0300406E03004036
:100BB000770300407603004064000040A83A01003B
:100BC0006D030040FC00A0E31EFF2FE11EFF2FE19C
:100BD000F0412DE90030A0E10170D3E528801FE548
:100BE00007C0D8E784739FE50C60D7E70C7083E0FB
:100BF0000870D7E540801FE50740D8E76C739FE594
:100C00000450D7E78C7184E0FF0007E20C7083E0AA
:100C10000870D7E50570D7E10C8083E00870C8E55F
:100C20000200001A0170D3E50670C7E10170C3E548
:100C3000BC701FE500E197E70070A0E3B472CEE15D
:100C40000070A0E31C708EE520108EE52670DEE5B6
:100C50000270C7E12670CEE52670DEE5000057E39E
:100C60000900001AE0701FE50070D7E5067087E103
:100C7000EC801FE50070C8E5F0701FE50C70D7E749
:100C8000057087E1FC801FE50C70C8E7F041BDE806
:100C90001EFF2FE1FC101FE5001091E51C0081E50F
:100CA00008211FE5002092E52920D2E524311FE527
:100CB000031082E00020D1E520311FE5003093E5EC
:100CC0002A30D3E50320D2E10020C1E50000000A6C
:100CD000070000EA3C111FE5001091E52B10D1E55B
:100CE0005C211FE50020D2E50110C2E168211FE56B
:100CF0000010C2E55C211FE5002092E52920D2E525
:100D0000002082E0081082E20820D2E574311FE55D
:100D1000003093E52A30D3E5032082E10020C1E5CD
:100D20000110D0E58C211FE5002092E52B20D2E5B3
:100D3000021081E10110C0E51EFF2FE1A4211FE593
:100D4000002092E52920D2E5002082E0081082E20E
:100D50000820D2E5BC311FE5003093E52A30D3E509
:100D60000320D2E10020C1E50000000A050000EAEE
:100D70000110D0E5DC211FE5002092E52B20D2E513
:100D80000210C1E10110C0E50010A0E3F4211FE54D
:100D9000002092E52610C2E50010A0E304221FE522
:100DA000002092E51C1082E51EFF2FE10020A0E349
:100DB0000120C0E5081080E20020A0E30120C1E48A
:100DC0000020A0E30120C1E40020A0E30120C1E451
:100DD0000020A0E30120C1E41EFF2FE1F84F2DE920
:100DE0000050A0E10190A0E102A0A0E103B0A0E1C9
:100DF00028808DE2C00198E80000A0E10200A0E395
:100E0000000000EF0000A0E188021FE5004090E52F
:100E1000000054E34F00000A98121FE5140094E507
:100E2000000081E50000A0E10300A0E3000000EF66
:100E30000000A0E1009084E52750C4E50000A0E395
:100E40002600C4E50000A0E3B402C4E1047084E518
:100E50000C6084E508A084E5B081C4E1B2B1C4E1CE
:100E60000000A0E32C00C4E5A501A0E12900C4E531
:100E70002900D4E5F4109FE50000D1E72B00C4E57C
:100E8000070005E22800C4E52800D4E5DC109FE552
:100E90000000D1E72A00C4E50000A0E31C0084E5BF
:100EA0000000A0E3200084E50400A0E1EA0D00EBCF
:100EB0000400A0E1E20D00EB0000A0E10200A0E3CD
:100EC000000000EF0000A0E154031FE5054180E7AA
:100ED00060031FE5000090E5140084E50000A0E336
:100EE000180084E574031FE5000090E5000050E35E
:100EF0000200000A84031FE5000090E5184080E529
:100F000090031FE5004080E52B00D4E588131FE522
:100F10000010D1E5010080E194131FE50000C1E558
:100F20002910D4E59C231FE5020081E00010D0E5E4
:100F30002A20D4E5021081E10010C0E50000A0E104
:100F40000300A0E3000000EF0000A0E10000A0E328
:100F5000F84FBDE81EFF2FE10000A0E10300A0E371
:100F6000000000EF0000A0E14600A0E3F7FFFFEA69
:100F7000A03A010038402DE90040A0E10150A0E175
:100F8000C8089FE50000D0E5000050E30400000A17
:100F90000200A0E30000C5E50000A0E33840BDE882
:100FA0001EFF2FE1000054E30300001A0400A0E339
:100FB0000000C5E50000A0E3F7FFFFEA0000D4E56C
:100FC000040050E30300000A0100A0E30000C5E5AF
:100FD0000000A0E3F0FFFFEA0000A0E10200A0E3B0
:100FE000000000EF0000A0E1B200D4E1FF10A0E398
:100FF0000000D1E11300001AB200D4E1FF0C00E2BE
:10100000B200C4E1B200D4E144189FE5001091E5BC
:101010002710D1E5010080E1B200C4E130089FE56E
:10102000000090E5040084E50000A0E10300A0E3D7
:10103000000000EF0000A0E10000A0E30000C5E513
:101040000100A0E3D4FFFFEA0000A0E10300A0E359
:10105000000000EF0000A0E10000A0E30000C5E5F3
:101060000000A0E3CCFFFFEA70402DE90050A0E1B2
:101070000160A0E1D4079FE50000D0E5000050E347
:101080000400000A8D00A0E30000C6E50000A0E314
:101090007040BDE81EFF2FE11E0055E30300003A3B
:1010A0002A00A0E30000C6E50000A0E3F7FFFFEA86
:1010B0000000A0E10200A0E3000000EF0000A0E1BA
:1010C00090079FE5050190E7000050E30700000A44
:1010D0000000A0E10300A0E3000000EF0000A0E199
:1010E0002800A0E30000C6E50000A0E3E7FFFFEA58
:1010F0000100A0E35C179FE5050181E758079FE524
:10110000004090E5000054E30A00001A0000A0E34C
:1011100040179FE5050181E70000A0E10300A0E37F
:10112000000000EF0000A0E10400A0E30000C6E51D
:101130000400A0E1D5FFFFEA1C079FE5000090E551
:10114000040090E510179FE5000081E50000A0E194
:101150000300A0E3000000EF0000A0E10400A0E312
:101160000000C4E5FF00A0E3050480E1B200C4E193
:101170000000A0E3040084E50400A0E10AFFFFEB07
:101180000000A0E30000C6E50400A0E1BFFFFFEA05
:10119000F0412DE90040A0E10180A0E10250A0E172
:1011A000A8069FE50000D0E5000050E30400000A17
:1011B0008C00A0E30000C5E50400A0E1F041BDE81B
:1011C0001EFF2FE1000054E30300001A0400A0E317
:1011D0000000C5E50000A0E3F7FFFFEA0000D4E54A
:1011E000040050E30300000A0100A0E30000C5E58D
:1011F0000400A0E1F0FFFFEA0000A0E10200A0E38C
:10120000000000EF0000A0E10100D4E5000050E381
:101210000100000A0160A0E3000000EA0060A0E312
:10122000000058E30200000A010058E33E00001AE3
:101230001D0000EA000056E31300001AB200D4E1DA
:101240002074A0E10000A0E308169FE5070181E7F4
:101250000000A0E30000C4E5FC059FE5000090E568
:10126000040084E5F0059FE5004080E50000A0E172
:101270000300A0E3000000EF0000A0E10000A0E3F5
:101280000000C5E50000A0E3CBFFFFEA0000A0E1FD
:101290000300A0E3000000EF0000A0E10800A0E3CD
:1012A0000000C5E50400A0E1C3FFFFEA0000A0E1E3
:1012B0000100D4E5000050E30400000A1020A0E380
:1012C0000010A0E30400A0E140FEFFEBF7FFFFEAFF
:1012D000B200D4E12074A0E10000A0E374159FE502
:1012E000070181E70000A0E30000C4E568059FE571
:1012F000000090E5040084E55C059FE5004080E582
:101300000000A0E10300A0E3000000EF0000A0E166
:10131000010056E30000001A27FDFFEB0000A0E3E8
:101320000000C5E50000A0E3A3FFFFEA0000A0E184
:101330000300A0E3000000EF0000A0E10700A0E32D
:101340000000C5E50400A0E19BFFFFEAF0472DE99E
:101350000050A0E10190A0E10260A0E1EC049FE553
:101360000000D0E5000050E30300000A0200A0E303
:101370000000C6E5F047BDE81EFF2FE1000055E381
:101380000200001A0400A0E30000C6E5F8FFFFEA2F
:101390000000D5E5040050E30200000A0100A0E3CC
:1013A0000000C6E5F2FFFFEA0000A0E10200A0E3B2
:1013B000000000EF0000A0E1B200D5E1FF10A0E3C3
:1013C0000000D1E11200001AB200D5E1FF0C00E2EA
:1013D000B200C5E1B200D5E174149FE5001091E5BB
:1013E0002710D1E5010080E1B200C5E160049FE56E
:1013F000000090E5040085E50000A0E10300A0E303
:10140000000000EF0000A0E10000A0E30000C6E53E
:10141000D7FFFFEAB200D5E12074A0E1B200D5E128
:10142000FFA000E2044095E52700D4E5070050E165
:101430003C00000A18049FE5000090E52700D0E575
:101440000A0050E13700002A2900D4E50C149FE57A
:101450000000D1E72A10D4E5010010E11000000AD5
:101460002910D4E5F4239FE5020081E00010D0E5C7
:101470002A20D4E50210D1E10010C0E50000000AE6
:10148000050000EA2B00D4E5D4139FE50010D1E558
:101490000000C1E1C8139FE50000C1E50180A0E3A1
:1014A000000000EA0080A0E32770C4E52700D4E52F
:1014B000A001A0E12900C4E52900D4E5A4139FE51B
:1014C0000000D1E72B00C4E52700D4E5070000E2C7
:1014D0002800C4E52800D4E588139FE50000D1E783
:1014E0002A00C4E5010058E30C00001A2B00D4E5E3
:1014F0006C139FE50010D1E5010080E160139FE5CA
:101500000000C1E52910D4E550239FE5020081E0E9
:101510000010D0E52A20D4E5021081E10010C0E5DA
:1015200030039FE5074180E724039FE5000090E535
:101530002600D0E5100080E314139FE5001091E52C
:101540002600C1E508039FE5000090E5B492C0E1E4
:101550000500A0E1CEFDFFEB0000A0E10300A0E349
:10156000000000EF0000A0E193FCFFEB0000A0E111
:101570000200A0E3000000EF0000A0E1D0029FE520
:10158000000090E52600D0E5100010E30800000AF6
:101590000500A0E1E8FDFFEB0000A0E10300A0E3EF
:1015A000000000EF0000A0E10A00A0E30000C6E593
:1015B0006FFFFFEA0000A0E394129FE5001091E5A1
:1015C0001C0081E50000A0E10300A0E3000000EFA3
:1015D0000000A0E10000A0E30000C6E564FFFFEA10
:1015E00070402DE90040A0E160029FE50000D0E5D9
:1015F000000050E30200000A0500A0E37040BDE8CF
:101600001EFF2FE1000054E30100001A0400A0E3D4
:10161000F9FFFFEA0000D4E5040050E30100000AEE
:101620000100A0E3F4FFFFEA0000A0E10200A0E354
:10163000000000EF0000A0E1B200D4E12064A0E1CE
:10164000B200D4E1FF5000E204029FE5000090E503
:101650002700D0E5060050E10A00000AF0019FE5EE
:10166000000090E52700D0E5050050E10500000AE4
:101670000000A0E10300A0E3000000EF0000A0E1F3
:101680007800A0E3DCFFFFEAC4019FE5000090E5DD
:101690002700D0E5060050E14600001AB0119FE592
:1016A000001091E52910D1E5B0219FE5020081E00D
:1016B0000010D0E598219FE5002092E52A20D2E590
:1016C0000210D1E10010C0E50000000A070000EAA6
:1016D0007C019FE5000090E52B00D0E580119FE59F
:1016E0000010D1E50000C1E174119FE50000C1E5E3
:1016F0005C019FE5000090E52750C0E5A501A0E151
:101700004C119FE5001091E52900C1E540019FE5DE
:10171000000090E52900D0E548119FE50000D1E7E1
:101720002C119FE5001091E52B00C1E5070005E2B3
:101730001C119FE5001091E52800C1E510019FE50F
:10174000000090E52800D0E518119FE50000D1E7E2
:10175000FC109FE5001091E52A00C1E5F0009FE52F
:10176000000090E52B00D0E5F4109FE50010D1E5D6
:10177000010080E1E8109FE50000C1E5D0109FE581
:10178000001091E52910D1E5D0209FE5020081E00D
:101790000010D0E5B8209FE5002092E52A20D2E590
:1017A000021081E10010C0E5A4009FE5000090E573
:1017B000A0109FE5050181E70100A0E394109FE5DB
:1017C000060181E70100D4E5000050E31400000A9F
:1017D0001020A0E30010A0E30400A0E1FBFCFFEB5D
:1017E0000050A0E1B200D4E1FF0C00E2B200C4E17D
:1017F000B200D4E1050080E1B200C4E154009FE5ED
:10180000050190E7040084E50000A0E10300A0E3E7
:10181000000000EF0000A0E1E7FBFFEB0000A0E309
:1018200075FFFFEAB200D4E1FF0080E3B200C4E13B
:101830000000A0E3040084E50000A0E10300A0E3B1
:10184000000000EF0000A0E10000A0E36AFFFFEA53
:101850006C0300407C0500408C050040680000409F
:101860007203004071030040A03A0100F8402DE9E6
:101870000070A0E10160A0E130001FE50000D0E5AC
:10188000000050E30200000A0600A0E3F840BDE8B3
:101890001EFF2FE1000057E30100001A0400A0E33F
:1018A000F9FFFFEA0000D7E5040050E30100000A59
:1018B0000100A0E3F4FFFFEA0000A0E10200A0E3C2
:1018C000000000EF0000A0E1B200D7E12004A0E199
:1018D0000700C6E5B200D7E10600C6E50600D6E57A
:1018E000FF0050E30200001A0100A0E30500C6E576
:1018F000010000EA0000A0E30500C6E50100D7E50D
:101900000400C6E5084087E20650A0E10110D4E4D7
:101910000110C5E40110D4E40110C5E40110D4E4C1
:101920000110C5E40110D4E40110C5E40000A0E1F9
:101930000300A0E3000000EF0000A0E10000A0E32E
:10194000D1FFFFEA70402DE90050A0E1000055E30F
:101950000200001A0000A0E37040BDE81EFF2FE166
:101960000000D5E5020050E30100000A0000A0E3FA
:10197000F8FFFFEA0000A0E10200A0E3000000EF92
:101980000000A0E1044095E5B601D4E1000050E379
:101990000E00000A100094E5040080E2101094E5A7
:1019A000100084E5006091E5B601D4E1010040E259
:1019B000B601C4E1100094E5081094E5010050E17F
:1019C0000300001A040094E5100084E5000000EA1A
:1019D0000060A0E30000A0E10300A0E3000000EF2E
:1019E0000000A0E10600A0E1DAFFFFEAF8402DE9DF
:1019F0000060A0E10170A0E194089FE50000D0E53F
:101A0000000050E30200000A0000A0E3F840BDE837
:101A10001EFF2FE10000A0E10200A0E3000000EFA4
:101A20000000A0E16C089FE5005090E564089FE588
:101A3000000090E5000050E30400000A54089FE510
:101A4000000090E5040090E548189FE5000081E55E
:101A50000000A0E10300A0E3000000EF0000A0E10F
:101A6000000055E32A00000A0000A0E10200A0E304
:101A7000000000EF0000A0E11C089FE5004090E599
:101A8000000054E31800000A0C089FE5000090E5F0
:101A9000000090E500189FE5000081E50000A0E14E
:101AA0000300A0E3000000EF0000A0E1046084E573
:101AB000070186E0080084E50C6084E5106084E599
:101AC000B471C4E10000A0E3B601C4E10200A0E3E8
:101AD0000000C5E50000A0E3B200C5E1044085E5D3
:101AE0000500A0E1B0FCFFEB090000EAA4079FE5B8
:101AF000000090E5040085E598079FE5005080E52B
:101B00000000A0E10300A0E3000000EF0000A0E15E
:101B10000050A0E30500A0E1BBFFFFEAF0412DE982
:101B20000040A0E10180A0E10250A0E160079FE534
:101B30000000D0E5000050E30400000A8C00A0E3A0
:101B40000000C5E50000A0E3F041BDE81EFF2FE165
:101B5000000054E30300001A0400A0E30000C5E500
:101B60000400A0E1F7FFFFEA0000D4E5020050E323
:101B70000300000A0100A0E30000C5E50400A0E1A5
:101B8000F0FFFFEA0000A0E10200A0E3000000EF88
:101B90000000A0E10100D4E5000050E30100000ACC
:101BA0000170A0E3000000EA0070A0E3000058E329
:101BB0000200000A010058E34000001A1E0000EA7B
:101BC000000057E31400001A046094E5C8069FE57E
:101BD000000090E5000086E5BC069FE5006080E51A
:101BE0000000A0E30000C4E5A8069FE5000090E522
:101BF000040084E59C069FE5004080E50000A0E12C
:101C00000300A0E3000000EF0000A0E10000A0E35B
:101C10000000C5E50000A0E3CAFFFFEA0000A0E164
:101C20000300A0E3000000EF0000A0E10800A0E333
:101C30000000C5E50400A0E1C2FFFFEA0000A0E14A
:101C40000100D4E5000050E30400000A0420A0E3F2
:101C50000010A0E30400A0E1DCFBFFEBF7FFFFEACC
:101C6000046094E530069FE5000090E5000086E5FD
:101C700024069FE5006080E50000A0E30000C4E5C5
:101C800010069FE5000090E5040084E504069FE54A
:101C9000004080E50000A0E10300A0E3000000EFA9
:101CA0000000A0E1010057E30000001AC2FAFFEBB8
:101CB0000000A0E30000C5E50000A0E3A1FFFFEAEB
:101CC0000000A0E10300A0E3000000EF0000A0E19D
:101CD0000700A0E30000C5E50400A0E199FFFFEACA
:101CE00038402DE90050A0E1000055E30200001A41
:101CF0000400A0E33840BDE81EFF2FE10000D5E559
:101D0000020050E30100000A0100A0E3F8FFFFEA2F
:101D10000000A0E10200A0E3000000EF0000A0E14D
:101D2000044095E5040094E50C0084E5040094E586
:101D3000100084E50000A0E3B601C4E10000A0E1CA
:101D40000300A0E3000000EF0000A0E10000A0E31A
:101D5000E7FFFFEAF0412DE90060A0E10180A0E18A
:101D60000250A0E128059FE50000D0E5000050E307
:101D70000400000A0200A0E30000C5E50000A0E3A3
:101D8000F041BDE81EFF2FE1000056E30300001AFA
:101D90000400A0E30000C5E50000A0E3F7FFFFEAB0
:101DA0000000D6E5020050E30300000A0100A0E3B2
:101DB0000000C5E50000A0E3F0FFFFEA0000A0E19D
:101DC0000200A0E3000000EF0000A0E1044096E55F
:101DD000B601D4E1000050E31500000A100094E5BC
:101DE000040080E2101094E5100084E5007091E595
:101DF000B601D4E1010040E2B601C4E1100094E56F
:101E0000081094E5010050E10100001A040094E577
:101E1000100084E50000A0E10300A0E3000000EF53
:101E20000000A0E10000A0E30000C5E50700A0E17C
:101E3000D2FFFFEA64049FE5000090E52600D0E5AC
:101E4000040080E354149FE5001091E52600C1E5ED
:101E500048049FE5000090E5B482C0E10600A0E1DF
:101E60008BFBFFEB0000A0E10300A0E3000000EF0C
:101E70000000A0E150FAFFEB0000A0E10200A0E3A7
:101E8000000000EF0000A0E110049FE5000090E5D5
:101E9000207090E5000057E31300000A0000A0E363
:101EA000F8139FE5001091E5200081E50000A0E314
:101EB000E8139FE5001091E52600C1E50000A0E3CE
:101EC000D8139FE5001091E51C0081E50000A0E11A
:101ED0000300A0E3000000EF0000A0E10000A0E389
:101EE0000000C5E50700A0E1A4FFFFEA0600A0E1AD
:101EF00091FBFFEB0000A0E10300A0E3000000EF76
:101F00000000A0E10A00A0E30000C5E50000A0E396
:101F10009AFFFFEA70402DE90050A0E10160A0E1C6
:101F2000000055E30200001A0400A0E37040BDE881
:101F30001EFF2FE1000056E30100001A0300A0E39A
:101F4000F9FFFFEA0000D5E5020050E30100000AB6
:101F50000100A0E3F4FFFFEA0000A0E10200A0E31B
:101F6000000000EF0000A0E10100D5E5000050E313
:101F70000A00000A0420A0E30610A0E10500A0E189
:101F800012FBFFEB0000A0E10300A0E3000000EF64
:101F90000000A0E108FAFFEB0000A0E3E2FFFFEA87
:101FA000044095E5B601D4E1B411D4E1010050E15B
:101FB0000500003A0000A0E10300A0E3000000EFEC
:101FC0000000A0E11E00A0E3D7FFFFEA0C0094E5AB
:101FD000040080E20C1094E50C0084E5006081E5CB
:101FE000B601D4E1010080E2B601C4E10C0094E541
:101FF000081094E5010050E10100001A040094E586
:102000000C0084E50000A0E10300A0E3000000EF65
:102010000000A0E10000A0E3C3FFFFEA70402DE94B
:102020000050A0E10160A0E1000055E30200001AA9
:102030000400A0E37040BDE81EFF2FE1000056E35E
:102040000100001A0300A0E3F9FFFFEA0000D5E554
:10205000020050E30100000A0100A0E3F4FFFFEAE0
:102060000000A0E10200A0E3000000EF0000A0E1FA
:102070000100D5E5000050E30A00000A0420A0E3B7
:102080000610A0E10500A0E1D0FAFFEB0000A0E1FE
:102090000300A0E3000000EF0000A0E1C6F9FFEBA1
:1020A0000000A0E3E2FFFFEA044095E5B601D4E1B9
:1020B000B411D4E1010050E10500003A0000A0E1B4
:1020C0000300A0E3000000EF0000A0E11E00A0E379
:1020D000D7FFFFEA100094E5041094E5010050E1F9
:1020E0000100001A080094E5100084E5100094E552
:1020F000040040E2100084E5100094E5006080E5F3
:10210000B601D4E1010080E2B601C4E10000A0E123
:102110000300A0E3000000EF0000A0E10000A0E346
:10212000C3FFFFEAF8402DE90050A0E10160A0E103
:102130000270A0E1000055E30200001A0400A0E3D1
:10214000F840BDE81EFF2FE1000056E30100001A31
:102150000300A0E3F9FFFFEA0000D5E5020050E329
:102160000100000A0100A0E3F4FFFFEA0000A0E183
:102170000200A0E3000000EF0000A0E10100D5E5AF
:10218000000050E31500000A010017E30800000AF0
:102190000000A0E10100D5E5000050E30800000ABE
:1021A0000420A0E30610A0E10500A0E187FAFFEB00
:1021B000F7FFFFEA0420A0E30610A0E10500A0E17C
:1021C00082FAFFEB0000A0E10300A0E3000000EFB3
:1021D0000000A0E178F9FFEB0000A0E3D7FFFFEAE1
:1021E000044095E5B601D4E1B411D4E1010050E119
:1021F0000500003A0000A0E10300A0E3000000EFAA
:102200000000A0E11E00A0E3CCFFFFEA020017E3FC
:102210000B00000A100094E5041094E5010050E161
:102220000100001A080094E5100084E5100094E510
:10223000040040E2100084E5100094E5006080E5B1
:102240000A0000EA0C0094E5040080E20C1094E51A
:102250000C0084E5006081E50C0094E5081094E52D
:10226000010050E10100001A040094E50C0084E52F
:10227000B601D4E1010080E2B601C4E10000A0E1B2
:102280000300A0E3000000EF0000A0E10000A0E3D5
:10229000AAFFFFEA6C0300406800004038090040D4
:1022A0007C050040F0412DE90070A0E10160A0E153
:1022B000000057E30200001A0400A0E3F041BDE86B
:1022C0001EFF2FE10000D7E5020050E30100000AE5
:1022D0000100A0E3F8FFFFEA0000A0E10200A0E394
:1022E000000000EF0000A0E10100D7E50C00C6E50A
:1022F000084087E2085086E20110D4E40110C5E4EA
:102300000110D4E40110C5E40110D4E40110C5E4C7
:102310000110D4E40110C5E4048097E5B601D8E1CA
:10232000000050E30300000A100098E5000090E56B
:10233000000086E5010000EA0000A0E3000086E559
:10234000B601D8E1B400C6E1B401D8E1B600C6E1F7
:102350000000A0E10300A0E3000000EF0000A0E106
:102360000000A0E3D4FFFFEA44009FE544209FE57E
:102370000010A0E30E0051E30700002A020000EA6B
:10238000013081E2401BC3E3F9FFFFEA002080E552
:10239000180080E2182082E2F8FFFFEA0030A0E394
:1023A000003080E508309FE514C11FE500308CE562
:1023B0001EFF2FE13C0900405409004038402DE940
:1023C0000040A0E1000054E30200001A0000A0E376
:1023D0003840BDE81EFF2FE10000D4E5030050E3C4
:1023E0000100000A0000A0E3F8FFFFEA0000A0E1FE
:1023F0000200A0E3000000EF0000A0E1B250D4E131
:10240000000055E30200000AB200D4E1010040E2FE
:10241000B200C4E10000A0E10300A0E3000000EF6F
:102420000000A0E10500A0E1E8FFFFEA38402DE947
:102430000050A0E1D0049FE50000D0E5000050E38B
:102440000200000A0000A0E33840BDE81EFF2FE1B3
:102450000000A0E10200A0E3000000EF0000A0E106
:10246000A8049FE5004090E5A0049FE5000090E5EA
:10247000000050E30400000A90049FE5000090E58E
:10248000040090E584149FE5000081E50000A0E1D0
:102490000300A0E3000000EF0000A0E1000054E30F
:1024A0000600000A0300A0E30000C4E5B250C4E146
:1024B0000000A0E3040084E50400A0E13AFAFFEB89
:1024C0000400A0E1DFFFFFEAF8402DE90040A0E1B1
:1024D0000170A0E10250A0E12C049FE50000D0E5CE
:1024E000000050E30400000A8C00A0E30000C5E5F2
:1024F0000400A0E1F840BDE81EFF2FE1000054E316
:102500000300001A0400A0E30000C5E50400A0E1F8
:10251000F7FFFFEA0000D4E5030050E30300000AE0
:102520000100A0E30000C5E50400A0E1F0FFFFEA20
:102530000000A0E10200A0E3000000EF0000A0E125
:102540000100D4E5000050E30100000A0160A0E3AF
:10255000000000EA0060A0E3000057E30200000A68
:10256000010057E33400001A180000EA000056E3A7
:102570000E00001A0000A0E30000C4E58C039FE5F4
:10258000000090E5040084E580039FE5004080E5BD
:102590000000A0E10300A0E3000000EF0000A0E1C4
:1025A0000000A0E30000C5E50000A0E3D0FFFFEAC3
:1025B0000000A0E10300A0E3000000EF0000A0E1A4
:1025C0000800A0E30000C5E50400A0E1C8FFFFEAA1
:1025D0000000A0E10100D4E5000050E30400000A7F
:1025E0000120A0E30010A0E30400A0E177F9FFEBD5
:1025F000F7FFFFEA0000A0E30000C4E50C039FE53D
:10260000000090E5040084E500039FE5004080E5BC
:102610000000A0E10300A0E3000000EF0000A0E143
:10262000010056E30000001A63F8FFEB0000A0E38E
:102630000000C5E50000A0E3ADFFFFEA0000A0E157
:102640000300A0E3000000EF0000A0E10700A0E30A
:102650000000C5E50400A0E1A5FFFFEA70402DE9F8
:102660000040A0E10160A0E10250A0E198029FE5D6
:102670000000D0E5000050E30300000A0200A0E3E0
:102680000000C5E57040BDE81EFF2FE1000054E3E7
:102690000200001A0400A0E30000C5E5F8FFFFEA0D
:1026A0000000D4E5030050E30200000A0100A0E3AB
:1026B0000000C5E5F2FFFFEA0000A0E10200A0E390
:1026C000000000EF0000A0E1B200D4E1000050E300
:1026D0000900000AB200D4E1010040E2B200C4E106
:1026E0000000A0E10300A0E3000000EF0000A0E173
:1026F0000000A0E30000C5E5E1FFFFEA10029FE54E
:10270000000090E52600D0E5010080E300129FE57F
:10271000001091E52600C1E5F4019FE5000090E579
:10272000B462C0E10400A0E159F9FFEB0000A0E1B0
:102730000300A0E3000000EF0000A0E11EF8FFEBA3
:102740000000A0E10200A0E3000000EF0000A0E113
:10275000BC019FE5000090E52600D0E5010010E3F4
:102760000800000A0400A0E173F9FFEB0000A0E1FB
:102770000300A0E3000000EF0000A0E10A00A0E3D6
:102780000000C5E5BEFFFFEA0000A0E380119FE561
:10279000001091E51C0081E50000A0E10300A0E32A
:1027A000000000EF0000A0E10000A0E30000C5E58C
:1027B000B3FFFFEA10402DE90040A0E1000054E320
:1027C0000200001A0400A0E31040BDE81EFF2FE144
:1027D0000000D4E5030050E30100000A0100A0E37B
:1027E000F8FFFFEA0000A0E10200A0E3000000EF14
:1027F0000000A0E10100D4E5000050E30A00000A57
:102800000120A0E30010A0E30400A0E1EFF8FFEB3B
:102810000000A0E10300A0E3000000EF0000A0E141
:10282000E5F7FFEB0000A0E3E6FFFFEAB200D4E12A
:10283000FFCC50E2FFC05C220800002AB200D4E1C5
:10284000010080E2B200C4E10000A0E10300A0E3C7
:10285000000000EF0000A0E10000A0E3D9FFFFEAC4
:102860000000A0E10300A0E3000000EF0000A0E1F1
:102870003200A0E3D3FFFFEAF8402DE90060A0E1B9
:102880000170A0E1000056E30200001A0400A0E37A
:10289000F840BDE81EFF2FE10000D6E5030050E33D
:1028A0000100000A0100A0E3F8FFFFEA0000A0E138
:1028B0000200A0E3000000EF0000A0E10100D6E567
:1028C0000600C7E5084086E2025087E20110D4E422
:1028D0000110C5E40110D4E40110C5E40110D4E4F2
:1028E0000110C5E40110D4E40110C5E4B200D6E142
:1028F000B000C7E10000A0E10300A0E3000000EF8A
:102900000000A0E10000A0E3E0FFFFEA6C0300404C
:10291000680000407C050040F84F2DE90070A0E100
:102920000160A0E11E0057E30100003AFF0057E3F9
:102930000100001A1E0056E30200003A2A00A0E33C
:10294000F84FBDE81EFF2FE10000A0E10200A0E368
:10295000000000EF0000A0E144089FE5060190E7B9
:10296000000050E30500000A0000A0E10300A0E31E
:10297000000000EF0000A0E12800A0E3EFFFFFEA65
:102980000100A0E318189FE5060181E70000A0E11F
:102990000300A0E3000000EF0000A0E1A681A0E199
:1029A00000089FE508A0D0E707B006E2F4079FE51E
:1029B0000B90D0E70000A0E10200A0E3000000EFD0
:1029C0000000A0E1FF0057E30200001AD8079FE5CE
:1029D000000090E52770D0E5C4079FE5074190E728
:1029E000000054E34800000A0000A0E3B0179FE590
:1029F000070181E72900D4E5B0179FE50000D1E782
:102A00002A10D4E5010010E11900000A2910D4E5CC
:102A100098279FE5020081E00010D0E52A20D4E548
:102A20000210D1E10010C0E50000000A050000EA34
:102A30002B00D4E578179FE50010D1E50000C1E137
:102A40006C179FE50000C1E564079FE50000D0E535
:102A50000A0080E158179FE50000C1E54C079FE59B
:102A60000800D0E7090080E140179FE50800C1E7B2
:102A7000170000EA1C5094E5000055E31400000A1A
:102A80002910D4E5051081E0080081E20810D1E5A5
:102A90002A20D4E50210D1E10010C0E50000000AB0
:102AA000030000EA0100D5E52B10D4E50100C0E1E8
:102AB0000100C5E50100D5E50A0080E10100C5E59A
:102AC000080085E00800D0E5090080E1081085E0F5
:102AD0000800C1E5C8069FE5064180E72760C4E518
:102AE0002980C4E528B0C4E52BA0C4E52A90C4E53C
:102AF0000000A0E10300A0E3000000EF0000A0E15F
:102B00002DF7FFEB0000A0E38CFFFFEA0000A0E33D
:102B10008C169FE5060181E70000A0E10300A0E319
:102B2000000000EF0000A0E12900A0E383FFFFEA1E
:102B3000FE432DE90060A0E10170A0E10280A0E168
:102B40000340A0E11E0054E30200009A2A00A0E323
:102B5000FE43BDE81EFF2FE10000A0E10200A0E35C
:102B6000000000EF0000A0E134069FE5040190E7BB
:102B7000000050E33600001A0100A0E320169FE594
:102B8000040181E70000A0E10300A0E3000000EFE2
:102B90000000A0E10030A0E30820A0E10710A0E1C0
:102BA0000600A0E19B4300EB0090A0E10030A0E311
:102BB0000020A0E300208DE50910A0E10400A0E1C1
:102BC0000C008DE984F8FFEB0050A0E1000055E314
:102BD0001200001A0000A0E10200A0E3000000EFD4
:102BE0000000A0E1CC059FE50000D0E5010080E2F7
:102BF000C0159FE50000C1E50000A0E10300A0E3CF
:102C0000000000EF0000A0E1AC059FE50000D0E56A
:102C1000010050E30C00001AE7F6FFEB0A0000EA9F
:102C20000000A0E10200A0E3000000EF0000A0E12E
:102C30000000A0E368159FE5040181E70000A0E122
:102C40000300A0E3000000EF0000A0E10500A0E108
:102C5000BEFFFFEA0000A0E10300A0E3000000EFD8
:102C60000000A0E12800A0E3B8FFFFEAFF4F2DE934
:102C70000CD04DE20340A0E150509DE548A08DE20C
:102C800040049AE844709DE540909DE51E0054E3A1
:102C90000300009A2A00A0E31CD08DE2F04FBDE8AB
:102CA0001EFF2FE10000A0E10200A0E3000000EF02
:102CB0000000A0E1E8049FE5040190E7000050E374
:102CC0003A00001A0100A0E3D4149FE5040181E753
:102CD0000000A0E10300A0E3000000EF0000A0E17D
:102CE000030015E30200000A0611A0E10700A0E1BD
:102CF000E74000EB0530A0E10C208DE2070092E8F0
:102D0000444300EB00B0A0E10930A0E10720A0E1BE
:102D10000B10A0E10400A0E108508DE540048DE80F
:102D20002DF8FFEB0080A0E1000058E31200001A2C
:102D30000000A0E10200A0E3000000EF0000A0E11D
:102D400070049FE50000D0E5010080E264149FE577
:102D50000000C1E50000A0E10300A0E3000000EFD7
:102D60000000A0E150049FE50000D0E5010050E321
:102D70000C00001A90F6FFEB0A0000EA0000A0E148
:102D80000200A0E3000000EF0000A0E10000A0E3CB
:102D90000C149FE5040181E70000A0E10300A0E31B
:102DA000000000EF0000A0E10800A0E1B9FFFFEA89
:102DB0000000A0E10300A0E3000000EF0000A0E19C
:102DC0002800A0E3B3FFFFEA70402DE90050A0E126
:102DD000E8039FE50000D0E5000050E30200000A90
:102DE0003F00A0E37040BDE81EFF2FE11E0055E349
:102DF0000100001A3D00A0E3F9FFFFEA1E0055E3C1
:102E00000300003AFF0055E30100000A2A00A0E396
:102E1000F3FFFFEA0000A0E10200A0E3000000EFE2
:102E20000000A0E1FF0055E30200001A78039FE5CF
:102E3000000090E52750D0E564039FE5054190E749
:102E4000000054E36300000A2910D4E55C239FE5E9
:102E5000020081E00010D0E52A20D4E50210D1E183
:102E60000010C0E50000000A050000EA2B00D4E5D0
:102E70003C139FE50010D1E50000C1E130139FE550
:102E80000000C1E51C6094E5000056E30C00000A58
:102E90002910D4E5061081E0080081E20810D1E590
:102EA0002A20D4E50210D1E10010C0E50000000A9C
:102EB000030000EA0100D6E52B10D4E50100C0E1D3
:102EC0000100C6E50000A0E3B402C4E10000A0E3F5
:102ED0002600C4E5E8029FE50000D0E5FF0050E3CE
:102EE0000400002AD8029FE50000D0E5010080E23E
:102EF000CC129FE50000C1E50000A0E10300A0E3C3
:102F0000000000EF0000A0E12FF7FFEB0000A0E1C0
:102F10000200A0E3000000EF0000A0E1A0029FE596
:102F20000000D0E5000050E30400000A90029FE595
:102F30000000D0E5010040E284129FE50000C1E5F9
:102F40000400A0E1C00500EB68029FE50000D0E5A9
:102F5000010040E25C129FE50000C1E50000A0E333
:102F60003C129FE5050181E7180094E5000050E35D
:102F70000600001A0000A0E3141094E5180081E593
:102F800040129FE5140094E5000081E5050000EA89
:102F9000141084E2030091E8140081E5180094E520
:102FA000141094E5180081E51C029FE5000090E5EF
:102FB000140084E510029FE5004080E50000A0E1D8
:102FC0000300A0E3000000EF0000A0E1FAF5FFEB32
:102FD0000000A0E382FFFFEA0000A0E10300A0E3FD
:102FE000000000EF0000A0E13C00A0E37CFFFFEA4E
:102FF000F8402DE90040A0E11E0054E30200001A51
:103000003D00A0E3F840BDE81EFF2FE11E0054E3A1
:103010000300003AFF0054E30100000A2A00A0E385
:10302000F7FFFFEAFF0054E30C00001A0000A0E1E4
:103030000200A0E3000000EF0000A0E168019FE5AE
:10304000000090E52C70D0E50000A0E10300A0E3B3
:10305000000000EF0000A0E10700A0E1E8FFFFEAA8
:103060000000A0E10200A0E3000000EF0000A0E1EA
:103070002C019FE5045190E7000055E30300000A8E
:103080003E00A0E32C00C5E50060A0E3000000EADC
:103090000B60A0E30000A0E10300A0E3000000EF4C
:1030A0000000A0E10600A0E1D5FFFFEA38402DE9CD
:1030B0000050A0E11E0055E30200003A2A00A0E300
:1030C0003840BDE81EFF2FE10000A0E10200A0E3B0
:1030D000000000EF0000A0E1C4009FE5054190E77B
:1030E000000054E30500001A0000A0E10300A0E383
:1030F000000000EF0000A0E16400A0E3EFFFFFEAA2
:103100002600D4E5080010E31F00000A2600D4E5DD
:103110000800D0E32600C4E51500001AB402D4E18B
:10312000000050E31200001A2B00D4E580109FE548
:103130000010D1E5010080E174109FE50000C1E5B9
:103140002910D4E564209FE5020081E00010D0E55D
:103150002A20D4E5021081E10010C0E50000A0E1C2
:103160000300A0E3000000EF0000A0E192F5FFEBF8
:10317000030000EA0000A0E10300A0E3000000EF6C
:103180000000A0E10000A0E3CCFFFFEA0000A0E106
:103190000300A0E3000000EF0000A0E16500A0E351
:1031A000C6FFFFEA8C050040A03A01007C05004004
:1031B0007203004071030040770300407603004033
:1031C0006C0300406E03004088050040800500400D
:1031D000F8432DE90040A0E10150A0E11E0054E3B6
:1031E0000400009AFF0054E30200000A2A00A0E352
:1031F000F843BDE81EFF2FE10000A0E3000085E5D5
:103200000000A0E3040085E50000A0E10200A0E3C7
:10321000000000EF0000A0E1FF0054E30200001AEC
:103220007C001FE5000090E52740D0E590001FE5F9
:10323000046190E7000056E30500001A0000A0E1D9
:103240000300A0E3000000EF0000A0E10B00A0E3FA
:10325000E6FFFFEAB001D6E1010010E30500001A25
:103260000000A0E10300A0E3000000EF0000A0E1E7
:103270008200A0E3DDFFFFEA0070A0E30C9096E57A
:10328000088096E50000A0E10300A0E3000000EF45
:103290000000A0E10000A0E1041098E4000051E368
:1032A0000100001A017087E2FAFFFFEA0701A0E1BE
:1032B000000085E5070049E00001A0E1040085E584
:1032C0000000A0E3C9FFFFEA70402DE90040A0E143
:1032D0001E0054E30200001A5B00A0E37040BDE84A
:1032E0001EFF2FE11E0054E30300003AFF0054E3E9
:1032F0000100000A2A00A0E3F7FFFFEA0000A0E1B6
:103300000200A0E3000000EF0000A0E1FF0054E392
:103310000400001A70011FE5000090E52740D0E589
:103320000160A0E3070000EA84011FE5000090E5CA
:103330002700D0E5040050E10100001A0160A0E37D
:10334000000000EA0060A0E3AC011FE5045190E733
:10335000000055E30500001A0000A0E10300A0E30F
:10336000000000EF0000A0E15A00A0E3DAFFFFEA4E
:103370002910D5E5CC211FE5020081E00010D0E541
:103380002A20D5E50210D1E10010C0E50000000AB6
:10339000050000EA2B00D5E5EC111FE50010D1E592
:1033A0000000C1E1F8111FE50000C1E52600D5E5E8
:1033B000080080E32600C5E50000A0E10300A0E3CB
:1033C000000000EF0000A0E1010056E30000001A39
:1033D000F9F4FFEB0000A0E3BFFFFFEA70402DE926
:1033E0000040A0E10160A0E11E0054E30400009A47
:1033F000FF0054E30200000A2A00A0E37040BDE889
:103400001EFF2FE10000A0E10200A0E3000000EF9A
:103410000000A0E1FF0054E30200001A78021FE55B
:10342000000090E52740D0E58C021FE5045190E7AD
:10343000000055E30500001A0000A0E10300A0E32E
:10344000000000EF0000A0E12900A0E3EAFFFFEA8E
:103450003020A0E30510A0E10600A0E1513F00EB01
:103460000000A0E10300A0E3000000EF0000A0E1E5
:103470000000A0E3E0FFFFEA10402DE90040A0E1DA
:10348000000054E32000000A0000A0E10200A0E3D5
:10349000000000EF0000A0E1BC129FE5001091E5E4
:1034A0002910D1E5B4229FE5020081E00010D0E5AB
:1034B000A4229FE5002092E52A20D2E50210D1E166
:1034C0000010C0E50000000A070000EA88029FE53E
:1034D000000090E52B00D0E584129FE50010D1E5B7
:1034E0000000C1E178129FE50000C1E568029FE598
:1034F000000090E5B442C0E10000A0E10300A0E3B9
:10350000000000EF0000A0E1ABF4FFEB1040BDE8CD
:103510001EFF2FE1F8432DE90090A0E10150A0E14A
:103520000260A0E10370A0E1050089E1060080E1EE
:10353000070090E12D00000A3B0055E30200009ACD
:103540005100A0E3F843BDE81EFF2FE13B0056E326
:103550000100009A5200A0E3F9FFFFEAC0CF57E252
:10356000E7C05C220100009A5300A0E3F4FFFFEAE9
:103570001900A0E3900702E0640FA0E3821180E04D
:10358000FA0FA0E3233F00EBE11EA0E3910902E064
:10359000051265E0011182E0061081E01920A0E328
:1035A000920101E0814180E02488A0E10448A0E18B
:1035B0002448A0E10400A0E1AEFFFFEB0000A0E181
:1035C000000058E30700000A800CA0E3A9FFFFEB0E
:1035D000800CA0E3A7FFFFEB010048E20088A0E118
:1035E0002888A0E1F5FFFFEA0000A0E3D4FFFFEA8E
:1035F0005400A0E3D2FFFFEA38402DE90050A0E1DB
:103600001E0055E30200003A2A00A0E33840BDE85E
:103610001EFF2FE10000A0E10200A0E3000000EF88
:103620000000A0E13C019FE5054190E7000054E364
:103630002600000AB402D4E1000050E31D00000A95
:103640000000A0E3B402C4E12600D4E5080010E3C2
:103650001200001A2B00D4E504119FE50010D1E5FB
:10366000010080E1F8109FE50000C1E52910D4E5D4
:10367000E8209FE5020081E00010D0E52A20D4E593
:10368000021081E10010C0E50000A0E10300A0E30A
:10369000000000EF0000A0E147F4FFEB030000EAA8
:1036A0000000A0E10300A0E3000000EF0000A0E1A3
:1036B0000000A0E3D4FFFFEA0000A0E10300A0E3C4
:1036C000000000EF0000A0E15000A0E3CEFFFFEA01
:1036D0000000A0E10300A0E3000000EF0000A0E173
:1036E0000B00A0E3C8FFFFEA10402DE90000A0E1B5
:1036F0000200A0E3000000EF0000A0E168009FE5E9
:10370000000090E50040A0E10000A0E10300A0E37C
:10371000000000EF0000A0E10400A0E11040BDE8BF
:103720001EFF2FE110402DE90040A0E10000A0E1C4
:103730000200A0E3000000EF0000A0E128009FE5E8
:10374000004080E50000A0E10300A0E3000000EFDE
:103750000000A0E11040BDE81EFF2FE17C05004005
:1037600072030040710300408C050040A40A004031
:103770000000A0E1000050E30900000A010000EA97
:10378000010040E2FAFFFFEA0010A0E340CD51E261
:10379000E2CF5C220100002A011081E2FAFFFFEA79
:1037A000F6FFFFEA1EFF2FE108402DE90100A0E32C
:1037B000FC149FE5000081E50000A0E30010A0E3F9
:1037C000000101E59AF4FFEB0840BDE81EFF2FE180
:1037D00008402DE90000A0E3D4149FE5700081E5C6
:1037E0000200A0E30010C1E1040081E50000E0E375
:1037F000001001E0000081E50000A0E30010C1E13D
:10380000080081E50300A0E30010C1E1140081E598
:10381000480AA0E30010C1E1180081E50100A0E31F
:103820000010C1E1040081E50000A0E184349FE5BF
:103830000020A0E30410A0E3400FA0E3010000EF8C
:103840000840BDE81EFF2FE10100A0E368149FE5DA
:10385000000081E50000A0E30010A0E3000101E505
:103860000000A0E354149FE50000C1E50000A0E3C0
:1038700044149FE5040081E51EFF2FE108402DE977
:103880003C049FE5C40090E5040080E330149FE50C
:10389000C40081E50000A0E37D1941E2700081E5EC
:1038A0000200A0E30010C1E1040081E50000E0E3B4
:1038B000001001E0000081E50000A0E30010C1E17C
:1038C000080081E50300A0E30010C1E1140081E5D8
:1038D0000000A0E30010C1E10C0081E55A08A0E35C
:1038E0000010C1E1180081E50000A0E30010C1E173
:1038F000040081E50000A0E1C8339FE50020A0E3BB
:103900000510A0E3400FA0E3010000EF0840BDE870
:103910001EFF2FE10100A0E3AC139FE5000081E54D
:103920000000A0E30010A0E3000101E50100A0E316
:1039300098139FE50000C1E50100A0E390139FE507
:103940000000C1E51EFF2FE108402DE970039FE54F
:10395000C40090E5400880E364139FE5C40081E55E
:103960000000A0E3631941E2700081E50200A0E3DA
:103970000010C1E1040081E50000E0E3001001E077
:10398000000081E50000A0E30010C1E1080081E52E
:103990000300A0E30010C1E1140081E50000A0E3F2
:1039A0000010C1E10C0081E528039FE54011C1E151
:1039B000180081E50000A0E30010C1E1040081E5EA
:1039C0000000A0E110339FE50020A0E31A10A0E35F
:1039D000400FA0E3010000EF0840BDE81EFF2FE10B
:1039E0000100A0E3F4129FE5000081E50000A0E3E0
:1039F0000010A0E3000101E50100A0E3D0129FE563
:103A00000000C1E51EFF2FE108402DE9B0029FE54F
:103A1000C40090E5800880E3A4129FE5C40081E51E
:103A20000000A0E3621941E2700081E50200A0E31A
:103A30000010C1E1040081E50000E0E3001001E0B6
:103A4000000081E50000A0E30010C1E1080081E56D
:103A50000300A0E30010C1E1140081E50000A0E331
:103A60000010C1E10C0081E5B409A0E34013C1E1FD
:103A7000180081E50000A0E30010C1E1040081E529
:103A80000000A0E158329FE50020A0E31B10A0E356
:103A9000400FA0E3010000EF0840BDE81EFF2FE14A
:103AA00008402DE90000A0E10200A0E3000000EFC3
:103AB0000000A0E12C029FE5643F00EB43FFFFEB19
:103AC0000000A0E10300A0E3000000EF0000A0E17F
:103AD0000840BDE81EFF2FE10100A0E3E0119FE5D3
:103AE000400081E50000C1E1880090E5800710E317
:103AF0000800000A0100A0E30010C1E1800081E598
:103B0000AA00A0E30010C1E18C0081E55500A0E30C
:103B10000010C1E18C0081E50000A0E3A0119FE549
:103B2000800081E5AA00A0E30010C1E18C0081E5DE
:103B30005500A0E30010C1E18C0081E50000A0E188
:103B40007C019FE5880090E5C00710E3FBFFFF1AAA
:103B50006C019FE5A00190E5040000E2200080E3F5
:103B60005C119FE5A00181E50000A0E150019FE507
:103B7000A00190E5400010E3FBFFFF0A0100A0E375
:103B80003C119FE50C0181E55C019FE5C011C1E19D
:103B9000840081E50100A0E30010C1E1800081E51F
:103BA000AA00A0E30010C1E18C0081E55500A0E36C
:103BB0000010C1E18C0081E50000A0E100019FE55B
:103BC000880090E5400710E3FBFFFF0A0500A0E333
:103BD000EC109FE5040181E5FE00A0E30010C1E1C7
:103BE000080181E50000C1E1C40090E58004C0E364
:103BF000C40081E50000A0E1C4009FE5880090E5D5
:103C0000400610E3FBFFFF0A0000A0E1B0009FE5C3
:103C1000880090E58008A0E1A008A0E1170050E32B
:103C20000400000A98009FE5880090E5FF0800E284
:103C3000400B50E3F4FFFF1A0300A0E380109FE560
:103C4000800081E5AA00A0E30010C1E18C0081E5BD
:103C50005500A0E30010C1E18C0081E50000A0E167
:103C60005C009FE5880090E5800710E3FBFFFF0AFA
:103C700078009FE548109FE5A80181E5C018C1E1E3
:103C8000AC0181E50000A0E30010C1E1000081E586
:103C90000200A0E30010C1E1000081E50300A0E301
:103CA0000010C1E1040081E51EFF2FE10000A0E14A
:103CB0001EFF2FE1004000E0A8370000008000E078
:103CC0000078004000C01FE048380000000007E016
:103CD00016780040AC7A00400000C20114390000A0
:103CE000004007E0E0390000A03A000017000100A2
:103CF000555555550000A0E1FEFFFFEA1C402DE997
:103D00000040A0E10000A0E10000A0E10000A0E16F
:103D100004208DE20010A0E34C089FE5000090E530
:103D20004DFAFFEBD53200EB40089FE5D1FDFFEBEC
:103D3000F5FFFFEA10402DE90040A0E10000A0E1FE
:103D40000000A0E10000A0E1A13B00EB5000A0E3D7
:103D5000C8FDFFEBFAFFFFEA10402DE90040A0E1AB
:103D60000000A0E10000A0E10000A0E13600A0E317
:103D7000442700EB6400A0E3BEFDFFEB3700A0E3A7
:103D80005D2700EB6400A0E3BAFDFFEB3800A0E381
:103D9000762700EB6400A0E3B6FDFFEBF1FFFFEA3E
:103DA0001C402DE90040A0E10000A0E10000A0E1DE
:103DB0000000A0E104208DE20010A0E3B0079FE521
:103DC000000090E5E2F7FFEB0400DDE5000050E3C2
:103DD0000400001ABF3000EB5000A0E3A5FDFFEB8C
:103DE0000400DDE50400CDE5F0FFFFEA38402DE9F1
:103DF0000040A0E10000A0E10000A0E10000A0E17F
:103E00000D20A0E10010A0E368079FE5000090E509
:103E1000CFF7FFEB0050A0E10000DDE5000050E32C
:103E20000400001A0500A0E1E41000EB0000A0E18E
:103E30006400A0E38FFDFFEBEFFFFFEA10402DE9E8
:103E40000040A0E10000A0E1F43000EB5000A0E34E
:103E500088FDFFEB1040BDE81EFF2FE11C402DE95F
:103E60000040A0E10000A0E30400CDE50000A0E1D7
:103E70000000A0E10000A0E104208DE20010A0E31A
:103E8000F4069FE5000090E5F3F9FFEB0830A0E3AE
:103E9000E8269FE50110A0E30100A0E3AD3500EBAB
:103EA000C800A0E373FDFFEBF1FFFFEA10402DE92E
:103EB0000040A0E10000A0E10000A0E10000A0E1BE
:103EC000D33500EB6400A0E36AFDFFEBFAFFFFEAE5
:103ED0001C402DE90040A0E10000A0E30400CDE576
:103EE0000000A0E10000A0E10000A0E104208DE2BC
:103EF0000010A0E388069FE5000090E5D6F9FFEBEF
:103F0000803900EB6400A0E35AFDFFEBF5FFFFEA08
:103F100010402DE90040A0E10000A0E1982E00EB48
:103F20001040BDE81EFF2FE11C402DE90040A0E13C
:103F30000000A0E30400CDE50000A0E10000A0E146
:103F40000000A0E104208DE20010A0E334069FE50C
:103F5000000090E5C0F9FFEBDD2E00EB5000A0E380
:103F600044FDFFEBF5FFFFEA1C402DE90040A0E116
:103F70000000A0E30400CDE50000A0E10000A0E106
:103F80000000A0E10000A0E1FC059FE50000D0E5F5
:103F9000000050E30200001A0500A0E335FDFFEB2E
:103FA000F8FFFFEAE4059FE5000090E500FAFFEB6B
:103FB0000000A0E3D0159FE50000C1E504208DE2DC
:103FC0000010A0E3C4059FE5000090E5A2F9FFEB17
:103FD000323200EB5000A0E326FDFFEBE7FFFFEAE3
:103FE0001C402DE90040A0E10000A0E30400CDE565
:103FF0000000A0E10000A0E10000A0E10000A0E1BD
:104000008C059FE50000D0E5000050E30200001A97
:104010000A00A0E317FDFFEBF8FFFFEA0000A0E3B2
:104020006C159FE50000C1E568059FE5000090E57F
:10403000DFF9FFEB04208DE20010A0E354059FE5BB
:10404000000090E584F9FFEB4E3100EB5000A0E357
:1040500008FDFFEBE7FFFFEA30402DE91CD04DE201
:104060000050A0E38DFEFFEB0030A0E30020A0E3B2
:104070004B1FA0E320059FE50F008DE90230A0E370
:1040800000308DE50C30A0E310259FE50010A0E383
:104090000C059FE5F4FAFFEB0030A0E30020A0E35D
:1040A0004B1FA0E3FC049FE50F008DE90730A0E360
:1040B00000308DE50E30A0E3EC249FE50010A0E376
:1040C000E8049FE5E8FAFFEB0030A0E30020A0E35E
:1040D0004B1FA0E3D8049FE50F008DE90730A0E354
:1040E00000308DE51230A0E3C8249FE50010A0E366
:1040F000C4049FE5DCFAFFEB0030A0E30020A0E35E
:104100004B1FA0E3B4049FE50F008DE90630A0E348
:1041100000308DE51030A0E3A4249FE50010A0E35B
:10412000A0049FE5D0FAFFEB0030A0E30020A0E35D
:104130004B1FA0E390049FE50F008DE90130A0E341
:1041400000308DE50B30A0E380249FE50010A0E354
:104150007C049FE5C4FAFFEB0030A0E30020A0E35D
:104160004B1FA0E36C049FE50F008DE90430A0E332
:1041700000308DE50D30A0E35C249FE50010A0E346
:1041800058049FE5B8FAFFEB000055E30500001A5C
:104190000000A0E18F3900EB0000A0E340149FE590
:1041A0000000C1E5D33800EBAF2C00EB842C00EB12
:1041B000162D00EB0040A0E30000A0E10000A0E10C
:1041C00018208DE26410A0E318049FE5000090E53C
:1041D00021F9FFEB0000A0E13E1C00EB1800CDE54B
:1041E0001800DDE5000050E3FAFFFF1A014084E209
:1041F000640054E30000003A0040A0E32800A0E37C
:104200009CFCFFEBECFFFFEA70402DE90040A0E1D1
:104210000150A0E10260A0E10620A0E10510A0E1AC
:104220000400A0E1A11800EB0000A0E31C1B00EBC0
:10423000531500EB6A0300EB3A1200EB7040BDE847
:104240001EFF2FE108402DE99C039FE50C0090E53F
:10425000F00AC0E3FF0CC0E38C139FE50C0081E57E
:10426000400C41E2180090E5FC07C0E3401C41E22D
:10427000180081E50100A0E1100090E50003A0E135
:10428000200DA0E164139FE50000C1E560039FE5F8
:10429000400090E5040080E354139FE5400081E571
:1042A00050039FE5180090E5C00580E344139FE5A7
:1042B000180081E570FDFFEBA2FDFFEBD1FDFFEBE8
:1042C000493800EB732800EBA22800EBD12800EB63
:1042D000002900EB1A00A0E31C139FE50000C1E5D4
:1042E0001B00A0E310139FE50100C1E5CF00A0E390
:1042F00004139FE50200C1E5B500A0E3F8129FE5B5
:104300000300C1E5CD00A0E3EC129FE50400C1E588
:10431000B300A0E3E0129FE50500C1E5C600A0E3FD
:10432000D4129FE50600C1E5F400A0E3C8129FE5A2
:104330000700C1E5B600A0E3BC129FE50800C1E597
:10434000AF00A0E3B0129FE50900C1E5A100A0E322
:10435000A4129FE50A00C1E5A100A0E398129FE521
:104360000B00C1E5C700A0E38C129FE50C00C1E57E
:10437000EB00A0E380129FE50D00C1E5C900A0E3BA
:1043800074129FE50E00C1E5D400A0E368129FE51A
:104390000F00C1E5B500A0E35C129FE51000C1E588
:1043A000C800A0E350129FE51100C1E50300A0E39F
:1043B00044129FE51200C1E51C00A0E338129FE5FE
:1043C0001300C1E51D00A0E32C129FE51400C1E518
:1043D0000000A0E320129FE51500C1E518029FE54B
:1043E000262600EB333800EB10129FE50100A0E316
:1043F000F22900EB0840BDE81EFF2FE104E02DE5A7
:104400001CD04DE28EFFFFEB78F0FFEB0030A0E315
:104410000020A0E34B1FA0E3E4019FE50F008DE91E
:1044200000308DE50A30A0E3D8219FE50010A0E31D
:10443000D4019FE50CFAFFEB0000A0E3FAF7FFEBD5
:10444000A0119FE5000081E50000A0E3F6F7FFEB77
:10445000B8119FE5000081E50000A0E3F2F7FFEB53
:10446000AC119FE5000081E50000A0E3EEF7FFEB53
:10447000A0119FE5000081E50100A0E3EAF7FFEB52
:1044800094119FE5000081E50000A0E3E6F7FFEB53
:1044900088119FE5000081E518108DE21100A0E36E
:1044A000F0F2FFEB78119FE5000081E50000A0E34A
:1044B000DDF7FFEBCC109FE5000081E50000A0E3F5
:1044C000D9F7FFEBC4109FE5000081E50000A0E3F1
:1044D000D5F7FFEBA0109FE5000081E50000A0E309
:1044E000D1F7FFEBAC109FE5000081E50000A0E3F1
:1044F000CDF7FFEB70109FE5000081E50000A0E321
:10450000C9F7FFEB78109FE5000081E51410A0E3E8
:1045100010019FE534F5FFEB0C119FE5000081E5EC
:104520001410A0E304019FE52FF5FFEB44109FE575
:10453000000081E51410A0E3F4009FE52AF5FFEBED
:104540002C109FE5000081E50000A0E3B6F7FFEB2B
:10455000E0109FE5000081E5F0F0FFEB0000A0E334
:104560001CD08DE204E09DE41EFF2FE19C7800400A
:10457000102700002C390040283900409078004076
:1045800001000040847800408878004014780040A2
:104590008C78004013780040947800400C14004060
:1045A000B8180040683F00001C220040C8260040A8
:1045B000343D00007C2B004028300040D03E0000FD
:1045C000CC260040782B0040103F00005C0F0040DC
:1045D00008140040E03F00006C1D0040182200401D
:1045E000FC3C0000A80A00406C78004000C002E0DB
:1045F0005C00004000C0FF3F008002E08C7700407C
:104600000E001C00AC0A0040580F0040584000004B
:10461000707800407478004078780040303900406D
:10462000807800407C7800403438004024390040D5
:10463000D438004084380040987800401EFF2FE1B5
:104640001EFF2FE10000A0E11EFF2FE10000A0E10E
:104650001EFF2FE11EFF2FE11EFF2FE10000A0E152
:104660001EFF2FE11EFF2FE11EFF2FE104D04DE2C0
:104670000020A0E10000A0E300008DE50010A0E311
:104680000A0051E30B00002A020000EA010081E267
:10469000FF1000E2F9FFFFEA00009DE58130D2E75C
:1046A000030480E0813082E00130D3E5030080E044
:1046B00000008DE5F4FFFFEA0000A0E1B200DDE1BB
:1046C000000050E30400000AB200DDE1B030DDE19B
:1046D000030080E000008DE5F7FFFFEAB000DDE1B8
:1046E000FF0060E2400F40E2B000CDE1B000DDE14C
:1046F00004D08DE21EFF2FE1F0412DE938D04DE2CC
:104700000070A0E10150A0E10260A0E10380A0E1FF
:104710000040A0E3010054E32400002A020000EA64
:10472000010084E2FF4000E2F9FFFFEA70079FE525
:10473000900401E06C079FE50100D0E70010D6E58A
:10474000010050E11800001A54079FE5900401E0B1
:1047500050079FE5000081E00100D0E50110D6E59B
:10476000010050E11000001A34079FE5900401E0B9
:1047700030079FE5000081E00200D0E50210D6E599
:10478000010050E10800001A14079FE5900401E0C1
:1047900010079FE5000081E00300D0E50310D6E597
:1047A000010050E10000001A000000EADBFFFFEA10
:1047B000010054E30300003AFF00A0E338D08DE28B
:1047C000F041BDE81EFF2FE14500A0E32400CDE548
:1047D0004500A0E31000CDE50000A0E32500CDE5F5
:1047E0000000A0E31100CDE5040097E5140080E28D
:1047F000B602CDE1B602DDE12004A0E11200CDE574
:10480000B602DDE11300CDE59C069FE5B000D0E1E6
:10481000010080E2B802CDE18C069FE5B000D0E156
:104820002004A0E11400CDE57C069FE5B000D0E1B6
:104830001500CDE570069FE5B000D0E1010080E2F3
:1048400064169FE5B000C1E14000A0E31600CDE58D
:104850000000A0E31700CDE58000A0E32C00CDE52B
:104860008000A0E31800CDE52D80CDE51980CDE5D1
:104870000000A0E3BE02CDE10000A0E31A00CDE5F8
:104880000000A0E31B00CDE514069FE5900401E0C5
:1048900010069FE50100D0E73000CDE500069FE55A
:1048A000900401E0FC059FE5000081E00100D0E5F7
:1048B0003100CDE5E8059FE5900401E0E4059FE5C2
:1048C000000081E00200D0E53200CDE5D0059FE593
:1048D000900401E0CC059FE5000081E00300D0E5F5
:1048E0003300CDE5B8059FE5900401E0B4059FE5F0
:1048F0000100D0E71C00CDE5A4059FE5900401E090
:10490000A0059FE5000081E00100D0E51D00CDE598
:104910008C059FE5900401E088059FE5000081E09B
:104920000200D0E51E00CDE574059FE5900401E08E
:1049300070059FE5000081E00300D0E51F00CDE594
:104940000000D5E53400CDE50100D5E53500CDE525
:104950000200D5E53600CDE50300D5E53700CDE50D
:104960000000D5E52000CDE50100D5E52100CDE52D
:104970000200D5E52200CDE50300D5E52300CDE515
:1049800010008DE238FFFFEBBE02CDE1BE02DDE19B
:104990002004A0E11A00CDE5BE02DDE11B00CDE55B
:1049A00004708DE51400A0E308008DE510008DE291
:1049B0000C008DE50D20A0E10A10A0E3EC049FE5BA
:1049C000000090E524F7FFEB0000DDE5000050E378
:1049D0000F00001A0420A0E134108DE204008DE2E3
:1049E000F81400EB000050E30400000ABC049FE54B
:1049F000000090E56EF7FFEB0100A0E36EFFFFEA19
:104A0000A8049FE5000090E569F7FFEB0000A0E334
:104A100069FFFFEA0000A0E367FFFFEAFC412DE920
:104A20000040A0E10150A0E10C00D4E50400CDE578
:104A30000D00D4E50500CDE50E00D4E50600CDE57A
:104A40000F00D4E50700CDE50000D4E50F6000E2DB
:104A50000601A0E1FF6000E2B270D4E1FF8007E24E
:104A60002774A0E1080487E0407BC0E3060047E02C
:104A70000078A0E12778A0E134049FE5000090E5EC
:104A8000010080E228149FE5000081E520049FE5F5
:104A9000000090E5040050E3020000BA0100A0E32A
:104AA0000C149FE5000081E50900D4E5010050E306
:104AB0000400000A060050E30600000A110050E35B
:104AC000F300001A7D0000EA0510A0E10400A0E157
:104AD0009E1300EBEF0000EA1000D4E5C0139FE541
:104AE000910502E0BC139FE50210D1E7010050E1FF
:104AF0007100001A1100D4E5A4139FE5910502E0AE
:104B0000A0139FE5011082E00110D1E5010050E102
:104B10006900001A1200D4E584139FE5910502E0B4
:104B200080139FE5011082E00210D1E5010050E101
:104B30006100001A1300D4E564139FE5910502E0BB
:104B400060139FE5011082E00310D1E5010050E100
:104B50005900001A064084E058039FE550139FE572
:104B6000001091E5014280E748039FE540139FE56F
:104B7000001091E5010280E0B470C0E10400DDE5C1
:104B800030139FE528239FE5002092E5021281E083
:104B90000700C1E50500DDE518139FE510239FE53B
:104BA000002092E5021281E00800C1E50600DDE583
:104BB00000139FE5F8229FE5002092E5021281E0B4
:104BC0000900C1E50700DDE5E8129FE5E0229FE569
:104BD000002092E5021281E00A00C1E5D4029FE5BF
:104BE000CC129FE5001091E5010280E00650C0E57F
:104BF000AC029FE5900501E0A8029FE50100D0E727
:104C0000B0129FE5A8229FE5002092E5021281E004
:104C10000B00C1E588029FE5900501E084029FE555
:104C2000000081E00100D0E588129FE580229FE529
:104C3000002092E5021281E00C00C1E560029FE5D0
:104C4000900501E05C029FE5000081E00200D0E5F4
:104C500060129FE558229FE5002092E5021281E054
:104C60000D00C1E538029FE5900501E034029FE5A3
:104C7000000081E00300D0E538129FE530229FE577
:104C8000002092E5021281E00E00C1E524029FE5BA
:104C90001C229FE5002092E5021280E018029FE5A9
:104CA000000090E59AF4FFEB0060A0E1000056E3FD
:104CB0000100000A010086E2FF6000E2750000EAE0
:104CC0001000D4E5D8119FE5910502E0D4119FE5CD
:104CD0000210D1E7010050E16C00001A1100D4E588
:104CE000BC119FE5910502E0B8119FE5011082E03B
:104CF0000110D1E5010050E16400001A1200D4E572
:104D00009C119FE5910502E098119FE5011082E05A
:104D10000210D1E5010050E15C00001A1300D4E557
:104D20007C119FE5910502E078119FE5011082E07A
:104D30000310D1E5010050E15400001A064084E060
:104D400070019FE568119FE5001091E5014280E741
:104D500060019FE558119FE5001091E5010280E098
:104D6000B470C0E10400DDE548119FE540219FE5F6
:104D7000002092E5021281E00700C1E50500DDE5B3
:104D800030119FE528219FE5002092E5021281E085
:104D90000800C1E50600DDE518119FE510219FE53B
:104DA000002092E5021281E00900C1E50700DDE57F
:104DB00000119FE5F8209FE5002092E5021281E0B6
:104DC0000A00C1E5EC009FE5E4109FE5001091E5C5
:104DD000010280E00650C0E5C4009FE5900501E0B7
:104DE000C0009FE50100D0E7C8109FE5C0209FE507
:104DF000002092E5021281E00B00C1E5A0009FE5D2
:104E0000900501E09C009FE5000081E00100D0E5F5
:104E1000A0109FE598209FE5002092E5021281E016
:104E20000C00C1E578009FE5900501E074009FE566
:104E3000000081E00200D0E578109FE570209FE53A
:104E4000002092E5021281E00D00C1E550009FE5CF
:104E5000900501E04C009FE5000081E00300D0E5F3
:104E600050109FE548209FE5002092E5021281E066
:104E70000E00C1E53C009FE534209FE5002092E54F
:104E8000021280E034009FE5000090E520F4FFEB83
:104E9000000000EA0000A0E10100A0E3FC41BDE841
:104EA0001EFF2FE163010000605B00402C380040D2
:104EB0003039004030380040343900402839004053
:104EC0002C39004010402DE90020A0E10030A0E383
:104ED00000E0A0E306005EE31200002A020000EA00
:104EE00001008EE240EBC0E3F9FFFFEA020282E03C
:104EF000820480E0D4CF9FE500018CE08E0080E04A
:104F00004F00D0E5000483E002C282E082C48CE05E
:104F1000B84F9FE50CC184E08EC08CE050C0DCE54A
:104F20000C3080E0EDFFFFEA0C0041E20018A0E148
:104F30002118A0E100E0A0E30000A0E1A1005EE1F3
:104F40001000002A020282E0820480E07CCF9FE50C
:104F500000018CE08E0080E05B00D0E5000483E07F
:104F600002C282E082C48CE0604F9FE50CC184E005
:104F70008EC08CE05CC0DCE50C3080E001008EE28D
:104F800040EBC0E3ECFFFFEA010011E30600000A7A
:104F9000020282E0820480E030CF9FE500018CE0D5
:104FA0008E0080E05B00D0E5003483E00308A0E1E0
:104FB0002008A0E1233880E0400B13E30300000A3F
:104FC000013083E24308B0E10000000A013083E2CF
:104FD0000300E0E10008A0E12008A0E11040BDE8E6
:104FE0001EFF2FE110402DE90040A0E3020054E332
:104FF0007200002A020000EA010084E2FF4000E2A1
:10500000F9FFFFEA0000A0E3041284E0841481E0C9
:10501000B82E9FE5011182E0B200C1E10000A0E3DB
:10502000041284E0841481E0A02E9FE5011182E047
:10503000B000C1E10000A0E3041284E0841481E028
:10504000882E9FE5011182E04800C1E50000A0E341
:10505000041284E0841481E0702E9FE5011182E047
:105060004E00C1E50000A0E3041284E0841481E056
:10507000582E9FE5011182E0180081E50000A0E3B1
:10508000041284E0841481E0402E9FE5011182E047
:105090004B00C1E50000A0E3041284E0841481E029
:1050A000282E9FE5011182E04A00C1E50000A0E33F
:1050B000041284E0841481E0102E9FE5011182E047
:1050C000200081E50000A0E3041284E0841481E064
:1050D000F82D9FE5011182E0280081E50000A0E3A2
:1050E000041284E0841481E0E02D9FE5011182E048
:1050F000340081E50000A0E3041284E0841481E020
:10510000C82D9FE5011182E0240081E50000A0E3A5
:10511000041284E0841481E0B02D9FE5011182E047
:105120002C0081E50000A0E3041284E0841481E0F7
:10513000982D9FE5011182E0300081E5FA0FA0E390
:10514000041284E0841481E0802D9FE5011182E047
:10515000BA03C1E10000A0E3041284E0841481E0FA
:10516000682D9FE5011182E0801E81E2B004C1E15B
:105170000000A0E3041284E0841481E04C2D9FE53C
:10518000011182E0801E81E2B204C1E10000A0E3CF
:10519000A5F4FFEB381D9FE5040181E70000A0E3C3
:1051A000A1F4FFEB2C1D9FE5040181E70000A0E3C3
:1051B0009DF4FFEB201D9FE5040181E78DFFFFEAD1
:1051C0000000A0E3141D9FE50000C1E50600A0E378
:1051D000081D9FE50100C1E51040BDE81EFF2FE15D
:1051E0003E402DE90040A0E1F00C9FE5BC50D0E12D
:1051F000E80C9FE5BE00D0E1E01C9FE5BC00C1E1EA
:10520000D80C9FE5BE50C0E15000A0E3CC1C9FE548
:105210001800C1E5040284E0840480E0AC1C9FE532
:10522000000181E0BA03D0E1B01C9FE5BA01C1E101
:105230000000A0E3A41C9FE5BE01C1E10000A0E3C3
:10524000981C9FE5BC01C1E10000A0E38C1C9FE518
:105250000000C1E50600A0E3801C9FE50100C1E558
:105260001400A0E3741C9FE5B200C1E10000A0E3BC
:1052700000008DE5640C9FE5B200D0E104008DE5EF
:105280005C0C9FE508008DE5040284E0840480E066
:10529000383C9FE5000183E0082080E2040284E0BE
:1052A000840480E0243C9FE5000183E0041080E258
:1052B0000630A0E30D00A0E10EFDFFEB1C0C9FE506
:1052C000B200D0E1041284E0841481E0FC2B9FE55D
:1052D000011182E0BC04C1E13E40BDE81EFF2FE1A8
:1052E00038402DE90040A0E10000A0E10200A0E369
:1052F000000000EF0000A0E1040284E0840480E0EC
:10530000C81B9FE5000181E04E00D0E5800010E35E
:105310000C00000A0100A0E3041284E0841481E080
:10532000A82B9FE5011182E04800C1E58200A0E3BF
:10533000041284E0841481E0902B9FE5011182E047
:105340004E00C1E5290000EA0000A0E3041284E059
:10535000841481E0742B9FE5011182E04800C1E5CF
:105360000000A0E3041284E0841481E05C2B9FE53C
:10537000011182E04E00C1E50000A0E3041284E0C8
:10538000841481E0442B9FE5011182E0B000C1E16B
:105390000000A0E3041284E0841481E02C2B9FE53C
:1053A000011182E00800C1E50000A0E3041284E0DE
:1053B000841481E0142B9FE5011182E00900C1E50E
:1053C0000000A0E3041284E0841481E0FC2A9FE53D
:1053D000011182E00A00C1E50000A0E3041284E0AC
:1053E000841481E0E42A9FE5011182E00B00C1E50D
:1053F0000000A0E1DC1A9FE5040191E7EEF3FFEB6A
:105400000050A0E1000055E3F9FFFF1A0000A0E101
:10541000BC1A9FE5040191E7E7F3FFEB0050A0E120
:10542000000055E3F9FFFF1A0000A0E1A81A9FE56C
:10543000040191E7E0F3FFEB0050A0E1000055E329
:10544000F9FFFF1A0000A0E3041284E0841481E055
:10545000782A9FE5011182E0200081E50000A0E3A9
:10546000041284E0841481E0602A9FE5011182E047
:10547000240081E50000A0E3041284E0841481E0AC
:10548000482A9FE5011182E0280081E50000A0E3A1
:10549000041284E0841481E0302A9FE5011182E047
:1054A0002C0081E50000A0E3041284E0841481E074
:1054B000182A9FE5011182E0300081E50000A0E399
:1054C000041284E0841481E0002A9FE5011182E047
:1054D000340081E50000A0E3041284E0841481E03C
:1054E000E8299FE5011182E04A00C1E50000A0E340
:1054F000041284E0841481E0D0299FE5011182E048
:105500004B00C1E50000A0E3041284E0841481E0B4
:10551000B8299FE5011182E0B200C1E10000A0E3DB
:10552000041284E0841481E0A0299FE5011182E047
:105530000400C1E50000A0E3041284E0841481E0CB
:1055400088299FE5011182E00500C1E50000A0E384
:10555000041284E0841481E070299FE5011182E047
:105560000600C1E50000A0E3041284E0841481E099
:1055700058299FE5011182E00700C1E50000A0E382
:10558000041284E0841481E040299FE5011182E047
:10559000801E81E2B004C1E10000A0E3041284E0B7
:1055A000841481E024299FE5011182E0801E81E2BC
:1055B000B204C1E10000A0E10300A0E3000000EF9D
:1055C0000000A0E13840BDE81EFF2FE11F402DE99B
:1055D0000040A0E104099FE51900D0E5020010E3B6
:1055E0009802000A0200A0E3041284E0841481E01F
:1055F000D8289FE5011182E04800C1E5DC089FE55D
:10560000BC00D0E1041284E0841481E0BC289FE552
:10561000011182E0B200C1E1C0089FE5100090E5F1
:10562000041284E0841481E0A0289FE5011182E047
:105630000C0081E5A4089FE5100090E5041284E0C9
:10564000841481E084289FE5011182E0200081E537
:105650000000A0E3041284E0841481E06C289FE53C
:10566000011182E0240081E578089FE5000090E5C3
:10567000041284E0841481E050289FE5011182E047
:10568000280081E5040284E0840480E03C189FE562
:10569000000181E0200090E5010080E2041284E036
:1056A000841481E024289FE5011182E02C0081E52B
:1056B00030089FE5000090E5010080E2041284E0DC
:1056C000841481E004289FE5011182E0300081E527
:1056D00010089FE5000090E5010080E2041284E0DC
:1056E000841481E0E4279FE5011182E0340081E524
:1056F000E8079FE5100090E5010080E2041284E0D5
:10570000841481E0C4279FE5011182E0140081E543
:10571000040284E0840480E0B0179FE5000181E08A
:10572000180090E5041284E0841481E09C279FE532
:10573000011182E0100081E5040284E0840480E02D
:1057400088179FE5000181E0100090E5041284E0D5
:10575000841481E074279FE5011182E01C0081E53B
:10576000040284E0840480E060179FE5000181E08A
:10577000100090E5010080E2041284E0841481E0CE
:1057800048279FE5011182E0180081E54C079FE55D
:10579000100090E5041284E0841481E02C279FE53A
:1057A000011182E0400081E5040284E0840480E08D
:1057B00018179FE5000181E0180090E5041284E0CD
:1057C000841481E004279FE5011182E0440081E513
:1057D00008079FE5BA01D0E1041284E0841481E057
:1057E000E8269FE5011182E0B803C1E1FA0FA0E3CA
:1057F000041284E0841481E0D0269FE5011182E048
:10580000BA03C1E1FA0FA0E3041284E0841481E03A
:10581000B8269FE5011182E0BC03C1E1BC069FE50B
:105820001800D0E5320050E31100009AAC069FE565
:105830002000D0E5020050E30D00001A9C069FE511
:105840002100D0E5040050E30900001A8C069FE512
:105850002300D0E584169FE52210D1E5010480E005
:10586000041284E0841481E060269FE5011182E047
:10587000BC03C1E1FA0FA0E3041284E0841481E0C8
:1058800048269FE5011182E0BE03C1E1040284E0E5
:10589000840480E034169FE5000181E0B000D0E18F
:1058A0002004A0E1041284E0841481E01C269FE51A
:1058B000011182E05B00C1E5040284E0840480E021
:1058C00008169FE5000181E0B000D0E1041284E0F9
:1058D000841481E0F4259FE5011182E05C00C1E5BC
:1058E000040284E0840480E0E0159FE5000181E08B
:1058F000B000D0E1E4159FE5BC00C1E1040284E002
:10590000840480E0C4159FE5000181E0B200D0E18D
:105910002004A0E1041284E0841481E0AC259FE51A
:10592000011182E05D00C1E5040284E0840480E0AE
:1059300098159FE5000181E0B200D0E1041284E0F7
:10594000841481E084259FE5011182E05E00C1E5B9
:10595000040284E0840480E070159FE5000181E08A
:10596000B200D0E174159FE5BE00C1E1040284E0FD
:10597000840480E054159FE5000181E0280090E553
:10598000200CA0E1041284E0841481E03C259FE512
:10599000011182E05F00C1E5040284E0840480E03C
:1059A00028159FE5000181E0280090E50004A0E1B2
:1059B000200CA0E1041284E0841481E00C259FE512
:1059C000011182E06000C1E5040284E0840480E00B
:1059D000F8149FE5000181E0280090E50008A0E1AF
:1059E000200CA0E1041284E0841481E0DC249FE513
:1059F000011182E06100C1E5040284E0840480E0DA
:105A0000C8149FE5000181E0280090E5041284E0BD
:105A1000841481E0B4249FE5011182E06200C1E5B5
:105A2000040284E0840480E0A0149FE5000181E08A
:105A3000100090E5A4149FE5100081E5040284E0C5
:105A4000840480E084149FE5000181E02C0090E54F
:105A5000200CA0E1041284E0841481E06C249FE512
:105A6000011182E06300C1E5040284E0840480E067
:105A700058149FE5000181E02C0090E50004A0E1AE
:105A8000200CA0E1041284E0841481E03C249FE512
:105A9000011182E06400C1E5040284E0840480E036
:105AA00028149FE5000181E02C0090E50008A0E1AA
:105AB000200CA0E1041284E0841481E00C249FE512
:105AC000011182E06500C1E5040284E0840480E005
:105AD000F8139FE5000181E02C0090E5041284E0BA
